:080000000C943E000C9400007A
:100008000C9400000C9400000C9400000C94000068
:100018000C9400000C9400000C9400000C94000058
:100028000C9400000C9400000C9400000C94000048
:100038000C9400000C9400000C9400000C94000038
:100048000C9400000C9400000C9400001027E803A6
:1000580064000A00010000100001100001006D3D5D
:1000680025752000763D2575200080C002006002BD
:1000780072000000F894EE27ECBBF1E0FBBFEBBF89
:10008800E5BFF8E1F1BDE1BD8DE0A2E0BB27ED934E
:100098008A95E9F780E098E0A0E6ED930197E9F703
:1000A800E4E7F0E085919591009761F0A591B5910D
:1000B80005901590BF01F00105900D920197E1F7A9
:1000C800FB01F0CFEFE5EDBFE8E0EEBFC0E6D2E020
:1000D8000C947D00AA93E881E064E7B985E38A95EA
:1000E800F1F7369A349BFECF349AE4B1F5B10C940B
:1000F8001A036497E0E0EBBBEABBE8BBEFEFE7BBB2
:10010800E0E0E5BBE4BBE2BBEFEFE1BBE0E8EFBD5D
:10011800E2E1EEBDE0E0EDBDECBDEEE4E7BDE0E21E
:10012800E6BDE8EEF3E0FBBDEABDE0E4E7B9E4E8EC
:10013800E6B9A0E10E94EF02A0E0CCDF8F01A3E0C6
:10014800A09FF001A19FF00D9F01243FE1E03E0731
:1001580010F424EF31E02136E9E03E0710F020E604
:1001680039E03BBD2ABDFE01FA93EA93E6E6F0E0EA
:10017800FA93EA93F9010E943503A0E00E94AC02C9
:10018800DE010E94DE02FE013A96FA93EA93ECE65B
:10019800F0E0FA93EA93F8010E943503A1E00E9487
:1001A800AC02DE011A960E94DE020E94B902A1E0AA
:1001B8000E944003C1CFFFCFBA93AA931A930A9320
:1001C800AA81BB8112960E948903309759F1AA81AE
:1001D800BB8114960E9489038F01309761F0023029
:1001E800E0E01E07F0F0F80131978F01AA81BB818A
:1001F8001496ED93FC93AA81BB811296ED91FD9123
:100208003196FE93EE933197AC81A083AA81BB818E
:100218000E948903FF232AF0ED91FD913196FE9308
:10022800EE9306C0AA81BB81EFEFFFEFED93FC933D
:100238001981088125960895BA93AA9326970E9452
:10024800960310E0AC85BD85E0E0F0E0ED93FC930B
:10025800EA89FB893196EA8BFB8B3197E4912E2F43
:10026800E03011F40C944F02E12FE03039F42532DC
:1002780011F411E002C00E9443030CC1E130A9F45B
:10028800253219F40E94430304C112E040E000E063
:100298002D3211F401E0FEC02B3211F44BE2FAC00A
:1002A800203211F440E2F6C002C0E23039F450E0E6
:1002B80013E0203311F40068EDC004C0E33011F0FE
:1002C8000C944E02203310F02A3308F007C0AAE03D
:1002D8005A9F502DE22FE0535E0FDCC0E22FE33629
:1002E80049F40E944A03E889F989A481AA930E94E3
:1002F8005003CFC0E33741F40E944A030E945603DB
:100308000E941C031E2F0AC0E03761F40E944A03B2
:100318000E9456030E9428031E2F086002600F7770
:1003280030E035C0E43611F0E93611F4046002C05B
:10033800E53731F4E4E5F0E0EE83FF8315E00DC026
:10034800E83511F4086004C0E83711F00C944D0248
:10035800EEE5F0E0EE83FF8314E002FF14C00E9494
:100368004A030E946003AB85AA233AF4EA85FB8519
:100378000E948503EA87FB874DE2403011F01F5F3A
:1003880001C00B7F04C00E944A030E94600300FD65
:1003980011C0151778F407FF08C002FF04C00B7FCF
:1003A800242F115001C020E301C020E20E94430322
:1003B8005150EFCF312F01FF17C03030A1F003FFAC
:1003C80006C0EE81FF812591EE83FF8305C0AE81D3
:1003D800BF812D91AE83BF830E944303503009F043
:1003E80051503150EACF4BC020E3EE81FF810E948B
:1003F8008D03E887F987EE81FF813296EE83FF83CC
:10040800E885F985AA85BB85AE17BF0750F02F5F31
:10041800A885B985EA85FB85EA1BFB0BEA87FB877C
:10042800EFCF2A3328F003FF02C0295F01C0295DFE
:1004380004FD1AC0213320F4A885B985119709F461
:1004480009C0531710F000FF01C013C020E207FFD6
:100458000BC020E3006102FF07C00B7F4A930E9494
:100468005003503009F051500E944303503009F0B6
:1004780051503150A885B985129708F0B5CF00FFC3
:1004880008C0503031F05150E0E2EA930E94500326
:10049800F8CF10E0DDCEAC85BD850E9489030E94AF
:1004A8009D0364960895FF92F82E26970E9498035C
:1004B8000E946803309719F4EFEFFFEF23C0DE01C5
:1004C80016960E9481038D010E946803EE83FF83C4
:1004D800E0E0E887E987DE011A960E9481030E941E
:1004E8008903FA93EA931A930A93E0EEF0E0FA93F9
:1004F800EA93DE011A96A0DE9F01AE81BF81E0E09B
:10050800EC93F9010E949F032A96FF900895AA93FD
:10051800E8B3EF70AE2FE881E07FEA2BE8BB8BE011
:100528008A95F1F7C29A8BE18A95F1F7C2988BE127
:100538008A95F1F77BC0AA93A881E9DFE881E29563
:10054800E883A881E4DF88EC90E00197F1F76EC0BA
:10055800AA93E881F0E0E05AFD4FE081A981AE0F4F
:10056800EADF5980488022960895A2E0E4DFA3E0FC
:100578000E944003ACE0DFDFA1E0DDDFA3E00E94E2
:100588004003E0E04E2E5E2E0895AA93A881AA307B
:1005980011F0571448F0E0E0EA934394A42DD8DF13
:1005A800A881AA3009F442C05394C09AA881C3DF35
:1005B800C0983CC0BA93AA931A93A981BA81ED91C5
:1005C800A983BA831E2FE03019F0A12FDEDFF5CF03
:1005D800188123960895AA93E7B3E06FE7BBBA9A08
:1005E800B89AB99AC298C098C1987880E881E058BA
:1005F800E0936202E881E054E0936302A4E10E9480
:1006080040030E946F030E946F030E946F03A0E2E1
:100618007EDF80E991E00197F1F7A8E28CDFA4E0A2
:100628008ADFA5E888DFA6E086DF9FDF21960895A8
:10063800BA93AA93A991B991EE27FF276D916623E2
:1006480011F03196FBCF0895BA93AA93AA27BB2736
:10065800E991F9910590002011F01196FBCFFD0169
:100668000895662777270E94910384E00E94570225
:100678002896E0E0EA930895B0E00C9477032A9373
:10068800AD85BE85EF85F88909950895E889F989CA
:100698003497E88BF98B0895AD85BE85EF85F88989
:1006A80009950895A889B98914960E948903EE834B
:1006B800FF83AE81BF810895A889B98914960E94E5
:1006C8008903EA87FB870895DE011C960E9481034F
:1006D8000E9489030895A0E30E948B0280E991E0BB
:1006E8000197F1F70895109639F080EA9FE0019795
:1006F800F1F7A8951197C9F708950024AF0DB01D1B
:100708000895F195E195F0400895ED91FC911197C8
:1007180008950590F491E02D08957A936A93FA93D9
:10072800EA9308955A934A933A932A931A930A9309
:1007380008955D814C813B812A8119810881089542
:00000001FF
